:020000040800F2
:1000000000040020510200086103000811030008E9
:100010001103000811030008110300081103000870
:100020001103000811030008110300081103000860
:100030001103000811030008110300083103000830
:1000400011030008E123000821240008110300081F
:1000500011030008D1210008312200089122000874
:1000600011030008711D0008C11D0008511E000881
:100070001103000811030008110300081103000810
:100080001103000811030008110300081103000800
:1000900011030008110300081103000811030008F0
:1000A000110300081103000811030008712F000854
:1000B00011030008110300081103000811030008D0
:1000C000002934D00123002210B488422CD301240B
:1000D0002407A14204D2814202D209011B01F8E7A0
:1000E000E400A14204D2814202D249005B00F8E759
:1000F000884201D3401A1A434C08A04202D3001B85
:100100005C0822438C08A04202D3001B9C082243B7
:10011000CC08A04202D3001BDC082243002803D0F5
:100120001B0901D00909E3E7101C10BC7047002827
:1001300001D00020C04307B4024802A14018029039
:1001400003BDC046DD0000000029F0D003B5FFF775
:10015000B9FF0EBC4243891A1847C0460000000090
:10016000002941D010B4041C4C40A44601230022B5
:10017000002900D54942002800D5404288422CD3AE
:1001800001242407A14204D2814202D209011B01A9
:10019000F8E7E400A14204D2814202D249005B00A8
:1001A000F8E7884201D3401A1A434C08A04202D310
:1001B000001B5C0822438C08A04202D3001B9C0851
:1001C0002243CC08A04202D3001BDC0822430028B3
:1001D00003D01B0901D00909E3E7101C6446002C79
:1001E00000D5404210BC7047002806D003DB002039
:1001F000C043400801E08020000607B4024802A185
:100200004018029003BDC046190000000029EBD041
:1002100003B5FFF7A7FF0EBC4243891A1847C04633
:100220007047C04600000000000000000000000011
:100230007047C046C046C046C046C046C046C046DD
:10024000FEE7C046C046C046C046C046C046C0469F
:1002500072B6214C84F30988022484F31488BFF316
:100260006F8F1E4C1E4D02E01E4B23600434AC42C7
:10027000FAD31D4C184D02E01A4B23600434AC42F3
:10028000FAD302F0DDFE194D194C03E02B68236010
:1002900004340435174B9C42F8D3174C174D02E039
:1002A000002323600434AC42FAD3FFF7C1FF144C9F
:1002B00002E0236898470434124B9C42F9D303F0C0
:1002C0007FFD114C02E02368984704340F4B9C4299
:1002D000F9D3FFF7B5FFC04600080020000000205A
:1002E000000400205555555500040020F053000827
:1002F000000800200C080020100800201819002019
:10030000C0000008C0000008C0000008C0000008CD
:10031000FEE7C046C046C046C046C046C046C046CE
:1003200000B572B6FEE7C046C046C046C046C046ED
:1003300010B582B07446019400F022FA72B600F053
:10034000EFF900F055F900F003FA62B600F038FA60
:10035000019B181C00F00CF802B010BDC046C0464E
:1003600010B5EFF30984203484F3098862B610BD18
:1003700010B582B00190019B1A1C0F322AD072B6C0
:10038000EFF30984203C84F3098880235B04E36154
:10039000114B9A692323D35C002B0AD00E4B1B68A8
:1003A0009A680D4B9B699B6893429B415B42DBB211
:1003B00009E0094B1B689968074B9B699A68002301
:1003C00091425B41DBB2002B02D0044BA36101E000
:1003D000034BA36102B010BD400D0020F1030008E3
:1003E000FC030008C046C046C046C046C046C046E2
:1003F00000F066F900F01CFD00F07AF9024B802253
:1004000012065A60FEE7C04600ED00E0C046C04656
:10041000031C0A1CF0B544464D4656465F46F0B4F0
:100420006946D160DB689D466B46F0BCA046A94694
:10043000B246BB46F0BDC046C046C046C046C046F8
:1004400008B500F055F962B6281CA04700F010FE70
:1004500008BDC046C046C046C046C046C046C046AD
:1004600030B585B001900091019A03231340DB0061
:1004700003931A4B019A9208184901988008C030DA
:10048000800041580398FF24251C8540281CC04348
:1004900008400399009C251C8D40291C0143C03253
:1004A0009200D1500D4B019A520901981F21014031
:1004B0000120041C8C40211C60329200D150074B5B
:1004C000019A520901981F2101400120051C8D400D
:1004D000291C9200D15005B030BDC04600E100E0BB
:1004E00030B585B001900091019A03231340DB00E1
:1004F00003930D4B019A92080B490198800806302E
:10050000800041580398FF24251C8540281CC043C7
:1005100008400399009C251C8D40291C014306328C
:100520009200D15005B030BD00ED00E0C046C0469D
:1005300000B583B00190024B9B69024A9A61FEE7C5
:10054000400D002070490008C046C046C046C04665
:1005500000B583B01B4B1C4ADA600A200021FFF76C
:10056000BFFF0B208021FFF7BBFF00F099FA00F0DE
:10057000CFF901F0E5F801F03BF900F071F9134B08
:10058000181C402100F074FC021C114B9A61104BA6
:100590009A6920230121D1540D4B9B690D4ADA61E0
:1005A00000F076F862B60A4B9B690B4A9A610B4AD7
:1005B0000B4B00210091101CC021012200F000FD16
:1005C00003B000BD00ED00E00000FA05D0080020F7
:1005D000400D0020000400200051000810080020F9
:1005E00031050008C046C046C046C046C046C046A9
:1005F00000B583B000F004F9224B9A692323D35C41
:10060000002B07D01F4B9B6923229A5C013AD1B281
:10061000232299541B4B9B695A6A01325A621A4B26
:10062000DB685A1C184BDA60174B1A68164B9A4253
:1006300025D0154B1B689A68013A9A6018E0019B17
:10064000DB680093019B0022DA60019B1B680E4A65
:100650005A60019B1A680C4B1A6000F079F862B678
:10066000019B1A69009B101C984772B600F058F85D
:10067000054B1B680193019B9B68002BDFD003B0E7
:1006800000BDC046400D0020300D0020C046C046D1
:1006900008B5064B1B68002B03D1054B1B68002BCC
:1006A00003D0044B181C00F023F908BD1C090020DE
:1006B0002009002090490008C046C046C046C046F8
:1006C00008B5084B1B68002B03D1074B1B68002B98
:1006D00003D0064B181C00F00BF9034B01221A60E3
:1006E00008BDC0461C0900202009002098490008C8
:1006F00008B5084B1B68002B03D1074B1B68002B68
:1007000003DC064B181C00F0F3F8034B00221A60C0
:1007100008BDC0461C09002020090020A04900088F
:1007200008B5084B1B68002B03DD074B1B68002B2B
:1007300003D0064B181C00F0DBF8034B01221A60B3
:1007400008BDC0461C09002020090020A849000857
:1007500008B5084B1B68002B03DD074B1B68002BFB
:1007600003DC064B181C00F0C3F8034B00221A6090
:1007700008BDC0461C09002020090020B04900081F
:1007800008B572B6094B1B68002B03DB084B1B68CE
:10079000002B03D0074B181C00F0AAF8034B1B6872
:1007A0005A1C024B1A6062B608BDC0461C090020E4
:1007B00020090020B8490008C046C046C046C046CF
:1007C00008B572B6094B1B68002B03DD084B1B688C
:1007D000002B03D0074B181C00F08AF8034B1B6852
:1007E0005A1E024B1A6062B608BDC0461C090020A2
:1007F00020090020C0490008C046C046C046C04687
:1008000008B5064B1B68002B03DB054B1B68002B50
:1008100003DC044B181C00F06BF808BD1C09002019
:1008200020090020C8490008C046C046C046C0464E
:1008300008B5064B1B68002B03D1054B1B68002B2A
:1008400003DC044B181C00F053F808BD1C09002001
:1008500020090020D0490008C046C046C046C04616
:10086000034B40221A60024B024A5A607047C0464E
:10087000240900202C090020C046C046C046C046BE
:1008800000B583B00190124B5B68124AD2681A60BF
:100890000F4B5B68104A92695A600D4B5B68019A76
:1008A000926A9A600A4B5B68019920228A5C1A73EB
:1008B000074B5B681A1C1032054B5A60044B5A6890
:1008C000064B9A4202D3024B054A5A6003B000BD60
:1008D00024090020300D0020400D00202C0D0020A8
:1008E0002C090020C046C046C046C046C046C0468F
:1008F00000B583B00190034B019A1A60FFF710FD19
:1009000003B000BD2C0D0020C046C046C046C04606
:10091000074B074A5A60064B5A68054B1A60044B4E
:10092000012252429A60024B0022DA607047C046B0
:10093000300D0020C046C046C046C046C046C04636
:1009400000B587B00390029101920093FFF758FF22
:10095000039B002B05D0019B002B02D0029B002B98
:1009600003D11D4B181CFFF7C3FF039B009A1A61AC
:10097000039B019ADA60194B1B68059307E0059BFE
:100980009B68029AD31A0293059B1B680593059BEB
:100990009A68029B9A42F2D3039B059A1A60039BC2
:1009A0001B685A68039B5A60039B5B68059A03990E
:1009B0005160059A52681A60039B029A9A60059AE0
:1009C000064B9A4205D0059B9A68029BD21A059B5A
:1009D0009A6007B000BDC046E0490008300D002015
:1009E00000B583B00190FFF70BFF019B002B03D1F3
:1009F000144B181CFFF77CFF019BDB68002B03D115
:100A0000114B181CFFF774FF019B1A680F4B9A4299
:100A100008D0019B1B68019A12689168019A92683C
:100A20008A189A60019B5B68019A12681A60019BA0
:100A30001B68019A52685A60019B0022DA6003B079
:100A400000BDC046F0490008004A0008300D0020F3
:100A500084B00190019B1B680393039B1A68019B60
:100A60001A60019B1B68019A5A60039B181C04B012
:100A70007047C046C046C046C046C046C046C04695
:100A800082B00190019B5B68019A12681A60019B19
:100A90001B68019A52685A60019B181C02B070478B
:100AA000084B084A5A60074B5A68064B1A60054BB8
:100AB00000229A60034B034A5A61024B5A69014B68
:100AC0001A617047400D0020C046C046C046C0466F
:100AD00000B585B00190FFF793FE019A2023D35C07
:100AE000002B04D0019A2023D35C0E2B03D1134B8F
:100AF000181CFFF7FDFE019A20230021D154104B52
:100B00000393039B1B680393039B9A68019B9B6859
:100B10009A42F6D2019B039A1A60039B5A68019B82
:100B20005A60019B5B68039A01995160039A52686D
:100B30001A60019B181C05B000BDC046204A000881
:100B4000400D0020C046C046C046C046C046C04614
:100B500000B585B0021C6B4607331A70FFF768FEBC
:100B6000184B9B690393039A694607312023097840
:100B7000D154039A23231421D154124B181CFFF78C
:100B800067FF021C0F4B9A610E4B9A6920230121CB
:100B9000D154039B181CFFF773FE6B461A1C243AB2
:100BA000039BDB699A4203D2074B181CFFF7A0FE98
:100BB000044B9A69039B101C191CFFF729FC05B014
:100BC00000BDC046400D0020344A0008C046C04663
:100BD00000B585B00190019B039372B6FFF7A0FDAD
:100BE000039A2023D35C032B0CD002DC002B05D00E
:100BF00011E0052B0BD00D2B09D00CE0FFF7A8FD61
:100C000062B613E0039B9B6A9A6801329A60039B69
:100C1000181CFFF735FF039B012252429A62039B87
:100C2000181CFFF755FFFFF793FD62B605B000BD36
:100C300000B589B0021C00916B4607331A70FFF7AC
:100C4000F7FD009B013315D0104B9B6903A8009959
:100C50000F4AFFF775FE6B4607331B78181CFFF72A
:100C600077FF03ABDB68002B0AD003AB181CFFF740
:100C7000B7FE05E06B4607331B78181CFFF768FFCB
:100C8000024B9B699B6A181C09B000BD400D0020F7
:100C9000D10B0008C046C046C046C046C046C0464C
:100CA00000B585B001900091FFF7C2FD019B009A4D
:100CB0009A62019B9A68174B9B699B689A4204D879
:100CC000019B181CFFF704FF22E0124B9B69181CC4
:100CD000FFF7FEFE031C03930E4B019A9A61019AE3
:100CE00020230121D154039B181CFFF7C9FD6B463B
:100CF0001A1C243A039BDB699A4203D2064B181C48
:100D0000FFF7F6FD019A039B101C191CFFF780FBEF
:100D100005B000BD400D0020344A0008C046C04662
:100D200000B583B0174B9B690193164B181CFFF756
:100D30008FFE021C134B9A61124B9A6920230121EA
:100D4000D154019A23231421D154019B181CFFF77D
:100D5000BFFE019B181CFFF793FD6B461A1C243A3B
:100D6000019BDB699A4203D2074B181CFFF7C0FDB9
:100D7000044B9A69019B101C191CFFF749FB03B037
:100D800000BDC046400D0020344A0008C046C046A1
:100D900000B583B0224B9B690093214B181CFFF7D1
:100DA00057FE021C1E4B9A611D4B9A69202301219C
:100DB000D154009A20230021D154194B0193019B57
:100DC0001B680193019B9A68009B9B689A42F6D826
:100DD000009B019A1A60019B5A68009B5A60009B15
:100DE0005B68019A00995160019A52681A60009BF1
:100DF000181CFFF745FD6B461A1C243A009BDB6963
:100E00009A4203D2074B181CFFF772FD044B9A69F4
:100E1000009B101C191CFFF7FBFA03B000BDC04675
:100E2000400D0020344A0008C046C046C046C046B7
:100E300008B5064B9A692323D35C002B02D1FFF738
:100E40006FFF01E0FFF7A4FF08BDC046400D002082
:100E500084B00190019B1B680393039B1A68019B5C
:100E60001A60039B181C04B07047C046C046C046B9
:100E700082B001900091019B009A9A60019A202310
:100E80000221D154019A21230021D154019A232314
:100E90001421D154019B009A5A64019B00221A64C8
:100EA000019B0022DA63019B00225A62019A2223ED
:100EB0000121D154019B00229A61019B124A1A61BF
:100EC000114B5A69019B5A61019B5B690E4A01995A
:100ED00051610D4A52691A61019B1A1C2C32019B07
:100EE000DA62019B1A1C3032019B5A63019B5A6BD8
:100EF000019B1A63019B1A1C4C32019BDA61019B16
:100F0000181C02B07047C046400D0020C046C046C5
:100F100000B585B0039002916B4607331A7007E065
:100F2000039B6A46073212781A70039B01330393BE
:100F3000039A029B9A42F3D305B000BDC046C04657
:100F400000B587B00390029101920093039B059333
:100F5000FFF756FC039B002B08D0029BAF2B05D953
:100F6000019B7F2B02D8009B002B03D10F4B181C39
:100F7000FFF7BEFC029B243B039AD218059BDA6064
:100F8000059BDB68009A1A61059BDB68089A5A6129
:100F9000059BDB68064A1A62059A019B101C191C06
:100FA000FFF766FF031C181C07B000BD504A00087D
:100FB00041040008C046C046C046C046C046C046C0
:100FC00010B588B00590049103920293059B4C33B1
:100FD000059A101C191CFF22FFF79AFF059B1A1C8B
:100FE0004C320599049BCB18101C191C5522FFF795
:100FF0008FFF72B6FFF764FB05980499039A029B72
:101000000A9C0094FFF79CFF031C0793079B181C86
:101010000021FFF745FEFFF76BFB62B6079B181C2C
:1010200008B010BDC046C046C046C046C046C04617
:1010300000B583B00190019B002B03D1084B181C15
:10104000FFF756FC72B6FFF73BFB019B0620191C0D
:10105000FFF7EEFDFFF74CFB62B603B000BDC046E4
:10106000904A0008C046C046C046C046C046C0467A
:1010700000B583B0019072B6FFF722FB019B181CEC
:1010800000F006F803B000BDC046C046C046C046EA
:1010900000B585B00190184B9B690393039B019A9F
:1010A0009A6208E0039B2C33181CFFF7D1FE031C47
:1010B000181CFFF70DFD039BDA6A039B2C339A4241
:1010C000F0D1039A2123D35C1A1C0323134009D1C6
:1010D000039B5B69039A12691A61039B1B69039A5C
:1010E00052695A610E20FFF733FD044B181CFFF7BD
:1010F000FFFB05B000BDC046400D0020A04A00081F
:1011000000B583B00190019B002B03D1074B181C45
:10111000FFF7EEFB019A019B5A60019B5A68019B05
:101120001A60019B00229A6003B000BDF04A0008DB
:1011300000B585B001900091FFF762FB019B002B89
:1011400003D10F4B181CFFF7D3FB019B1B680393C4
:1011500010E0039BDA68009B1A43039BDA60039B51
:101160005A68039B9B68101C191C00F011F8039B24
:101170001B680393039A019B9A42EAD105B000BD14
:10118000CC4B0008C046C046C046C046C046C0461C
:1011900000B583B001900091FFF732FB019B002B5B
:1011A00003D1164B181CFFF7A3FB019BDA6B009BC6
:1011B0001A43019BDA63019A2023D35C082B05D1E3
:1011C000019BDA6B019B9B6A13400DD1019A20238E
:1011D000D35C092B0FD1019BDA6B019B9B6A1A40F0
:1011E000019B9B6A9A4206D1019B181CFFF770FC79
:1011F000031C00229A6203B000BDC046F44B0008F5
:1012000082B001900091019B009A1A60009B5A687D
:10121000019B5A60019B5B68009A01995160009A9A
:1012200052681A6002B07047C046C046C046C04609
:1012300084B00190019B1B680393039B1A68019B78
:101240001A60019B1B68019A5A60039B181C04B02A
:101250007047C046C046C046C046C046C046C046AD
:1012600000B583B001900091009B002B02D10123B7
:101270005B4210E0094B9B69019A9A62074B9A699D
:10128000019B101C191CFFF7BBFF009B0D20191CB4
:10129000FFF7CEFC031C181C03B000BD400D00205E
:1012A00084B00390029101920093039A039B5A60C9
:1012B000039B5A68039B1A60039B00229A60039B5E
:1012C000029A5A61039B5A69039B9A61039B9A692C
:1012D000039BDA60029A019BD218039B1A61039B5D
:1012E000009ADA61039B049A1A6204B07047C04600
:1012F00000B583B001900A1C6B4603331A70FFF7E8
:101300007FFA019B5A69019B9B699A4205D1019B17
:101310009B68002B01D0012300E000231A1C01234D
:101320001340DBB2002B02D004235B4228E0019B78
:101330009B685A1C019B9A60019B5B696A46033259
:1013400012781A705A1C019B5A61019B5A69019BC1
:101350001B699A4203D3019BDA68019B5A61019B86
:101360001A68019B9A420AD0019B181CFFF760FF84
:10137000031C181CFFF7ACFB031C00229A6200231D
:10138000181C03B000BDC046C046C046C046C0469B
:1013900000B585B00190009172B6FFF791F9019BFD
:1013A000DB69002B15D0019BDB69019A101C984763
:1013B0000FE0019A009B101C191CFFF751FF031C42
:1013C0000393039B002B05DAFFF792F962B6039BA8
:1013D00022E0C046019B9B68002BEAD0019B9B68E2
:1013E0005A1E019B9A60019B9B696A460B321978D1
:1013F00011705A1C019B9A61019B9A69019B1B69A0
:101400009A4203D3019BDA68019B9A61FFF770F956
:1014100062B66B460B331B78181C05B000BDC04686
:1014200000B587B00390029101920093039BDB69A2
:10143000049300230593019B002B03D1284B181C18
:10144000FFF756FA72B6FFF73BF9049B002B12D058
:10145000039A049B101C98470DE0039A009B101CF4
:10146000191CFFF7FDFE031C002B05D0FFF740F908
:1014700062B6059B30E0C046039B9B68002BECD016
:10148000039B9B685A1E039B9A60039B9B69197878
:10149000029A1170029A013202925A1C039B9A61BD
:1014A000039B9A69039B1B699A4203D3039BDA68E7
:1014B000039B9A61FFF71CF962B6059B0133059304
:1014C000019B013B0193019B002B01D1059B03E094
:1014D00072B6FFF7F5F8B8E7181C07B000BDC046B4
:1014E000304C0008C046C046C046C046C046C04654
:1014F00084B00390029101920093039A039B5A6077
:10150000039B5A68039B1A60039B019A9A60039B92
:10151000029A5A61039B5A69039B9A61039B9A69D9
:10152000039BDA60029A019BD218039B1A61039B0A
:10153000009ADA61039B049A1A6204B07047C046AD
:1015400000B587B0039001926B460B330A1C1A70EA
:1015500072B6FFF7B5F80FE0039A019B101C191C37
:10156000FFF77EFE031C0593059B002B04DAFFF7B3
:10157000BFF862B6059B28E0039B9B68002BEBD06D
:10158000039B9B685A1E039B9A60039B5B696A4698
:101590000B3212781A705A1C039B5A61039B5A69CA
:1015A000039B1B699A4203D3039BDA68039B5A612E
:1015B000039BDB69002B04D0039BDB69039A101C9F
:1015C0009847FFF795F862B60023181C07B000BDD6
:1015D00000B585B00190FFF713F9019B5A69019B93
:1015E0009B699A4205D1019B9B68002B01D0012386
:1015F00000E000231A1C01231340DBB2002B02D0B1
:1016000003235B422AE0019B9B685A1C019B9A6062
:10161000019B9B696A460F32197811705A1C019B15
:101620009A61019B9A69019B1B699A4203D3019BB2
:10163000DA68019B9A61019B1A68019B9A420AD061
:10164000019B181CFFF7F4FD031C181CFFF740FA60
:10165000031C00229A626B460F331B78181C05B0DE
:1016600000BDC046C046C046C046C046C046C04693
:1016700000B587B00390029101920093039BDB6950
:10168000049300230593019B002B03D1284B181CC6
:10169000FFF72EF972B6FFF713F80DE0039A009BDF
:1016A000101C191CFFF7DCFD031C002B04D0FFF7F6
:1016B0001FF862B6059B37E0039B9B68002BEDD0BB
:1016C000039B9B685A1E039B9A60039B5B69029A6B
:1016D00012781A705A1C039B5A61029B01330293C1
:1016E000039B5A69039B1B699A4203D3039BDA68E5
:1016F000039B5A61049B002B03D0039A049B101C8C
:101700009847FEF7F5FF62B6059B01330593019BF1
:10171000013B0193019B002B01D1059B04E072B6B4
:10172000FEF7CEFFC046C7E7181C07B000BDC04695
:10173000444C0008C046C046C046C046C046C046ED
:10174000064B0733072293431A1C054B1A60054BBF
:10175000072293431A1C044B1A6070471819002083
:101760005C0D002000200020600D0020C046C04617
:1017700000B585B0019072B6FEF7A2FF019B181C60
:1017800000F00EF8031C0393FEF7B2FF62B6039B52
:10179000181C05B000BDC046C046C046C046C04685
:1017A00000B585B00190FFF72BF8019B07330722A6
:1017B000934301930C4B1B681A1C0C4B1B68D31AE8
:1017C0001A1C019B9A4201D2002309E0074B1B68B7
:1017D0000393064B1A68019BD218044B1A60039BB3
:1017E000181C05B000BDC046600D00205C0D002037
:1017F00008B5074B074A1A60054B00229A60044B54
:101800000022DA60044B181CFFF77AFC08BDC046C2
:10181000680D002071170008780D0020C046C046F2
:1018200008B500F035FC074B181C00F079FF00F0FC
:101830000FF800F04DF900F0EBF900F051F801F06D
:1018400007FC08BD90510008C046C046C046C046CF
:1018500008B500F01DFE08BDC046C046C046C046E3
:1018600082B00190019B01221A70019B00225A60F4
:1018700002B07047C046C046C046C046C046C046DB
:1018800000B583B001900091019B002B02D0009B1A
:10189000002B03D1104B181CFFF72AF872B6FEF785
:1018A0000FFF019B1B78012B07D0019B1B78022B9C
:1018B00003D00A4B181CFFF71BF8019B009A5A60D3
:1018C000019B181C00F0ECFD019B02221A70FEF730
:1018D0000FFF62B603B000BD604C0008704C0008FA
:1018E00008B500F0F5FF08BDC046C046C046C0467A
:1018F00000B583B001900091019B002B02D0009BAA
:10190000002B03D1084B181CFEF7F2FF72B6FEF74E
:10191000D7FE019A009B101C191C01F021F8FEF75C
:10192000E7FE62B603B000BD304D0008C046C046B9
:1019300000B583B001900091019B002B02D0009B69
:10194000002B03D1084B181CFEF7D2FF72B6FEF72E
:10195000B7FE019A009B101C191C01F041F8FEF71C
:10196000C7FE62B603B000BD404D0008C046C04689
:1019700000B585B0039002910192039B181C303092
:101980000299019A01235B42FFF772FE031C181CA7
:1019900005B000BDC046C046C046C046C046C046B1
:1019A00000B585B0039002910192039B181C0C3086
:1019B0000299019A01235B42FFF732FD031C181CB8
:1019C00005B000BDC046C046C046C046C046C04681
:1019D00000B583B001900A1C6B4603331A70019B5B
:1019E000191C30316B4603331A7801235B42081C03
:1019F000111C1A1CFFF7A4FD031C181C03B000BD2A
:101A000000B583B00190019B1A1C0C3201235B428C
:101A1000101C191CFFF7BCFC031C181C03B000BDF4
:101A200000B585B0039001926B460B330A1C1A7007
:101A3000039B191C30316B460B331A78019B081C31
:101A4000111C1A1CFFF77CFD031C181C05B000BDFF
:101A500000B583B001900091019B1A1C0C32009BD1
:101A6000101C191CFFF794FC031C181C03B000BDCC
:101A700000B585B00390029101920093039B181C5E
:101A800030300299019A009BFFF7F2FD031C181CED
:101A900005B000BDC046C046C046C046C046C046B0
:101AA00000B585B00390029101920093039B181C2E
:101AB0000C300299019A009BFFF7B2FC031C181C22
:101AC00005B000BDC046C046C046C046C046C04680
:101AD00008B501F065FA08BDC046C046C046C0461C
:101AE00000B587B0059004910392059B134A1A60D4
:101AF000059B1A1D059B5A60059B01221A72059BC6
:101B0000191C0C31059B1A1C5432049B059800903B
:101B1000081C111C4022FFF7C3FB059B191C303128
:101B2000059B1A1C9432039B05980090081C111CFD
:101B30004022FFF7DDFC07B000BDC0462051000881
:101B400000B583B001900091019B002B03D1104B95
:101B5000181CFEF7CDFE72B6FEF7B2FD019B1B7A94
:101B6000012B07D0019B1B7A022B03D0094B181CB9
:101B7000FEF7BEFE019A009B101C191C01F030FA02
:101B8000019B02221A72FEF7B3FD62B603B000BDDC
:101B9000704D00087C4D0008C046C046C046C04697
:101BA00000B583B001900A1C6B4603331A70FEF730
:101BB00027FE019B002B03D1114B181CFEF798FE4A
:101BC000019B5B69002B05D1019B0433181C042188
:101BD000FFF7AEFA019B1A1C0C326B4603331B78DD
:101BE000101C191CFFF784FB031C002B05DA019B5A
:101BF0000433181C8021FFF79BFA03B000BDC046D8
:101C0000A84D0008C046C046C046C046C046C046B3
:101C100008B500F075FF08BDC046C046C046C046C6
:101C200000B583B00190019B01221A70019B002234
:101C30005A60019B00229A60019B0C33181CFFF72D
:101C40005FFA03B000BDC046C046C046C046C046AD
:101C500000B583B001900091019B002B02D0009B46
:101C6000002B03D1104B181CFEF742FE72B6FEF794
:101C700027FD019B1B78012B07D0019B1B78022BB2
:101C800003D00A4B181CFEF733FE019B009A5A60E2
:101C9000019B181C00F05CFF019B02221A70FEF7EA
:101CA00027FD62B603B000BDD04D0008E04D00082E
:101CB00000B583B00190019B002B03D10B4B181C86
:101CC000FEF716FE72B6FEF7FBFC019B1B78022B9B
:101CD00003D0074B181CFEF70BFE019B181C00F0ED
:101CE000E7FFFEF705FD62B603B000BD0C4E00082D
:101CF0001C4E0008C046C046C046C046C046C0464E
:101D000000B585B0039002910192039B002B05D092
:101D1000029B002B02D0019B002B03D10F4B181C00
:101D2000FEF7E6FD72B6FEF7CBFC039B1B78022B99
:101D300003D00B4B181CFEF7DBFD039B03221A702C
:101D40000399029A019B081C111C1A1C00F0D0FF79
:101D5000FEF7CEFC62B605B000BDC046AC4E000832
:101D6000C04E0008C046C046C046C046C046C04639
:101D700010B582B074460194FEF702FD0D4B1A684F
:101D80000F23134000930B4B0F225A600A4B1B6822
:101D9000002B07D0084B1A68074B5968009B081C9A
:101DA000191C9047FEF70CFD019B181CFEF7E0FA8A
:101DB00002B010BD000002408C0D0020C046C0469D
:101DC00010B582B074460194FEF7DAFC1D4B1B6817
:101DD0001A090F2313400093009A0F2313400ED0CB
:101DE000184BF0225A60184B9B68002B07D0164BFB
:101DF0009A68154BD968009B081C191C9047114B19
:101E00001B681A0A0F2313400093009A0F231340F4
:101E10000FD00C4BF02212015A600B4B1B69002BA8
:101E200007D0094B1A69084B5969009B081C191CFB
:101E30009047FEF7C5FC019B181CFEF799FA02B00B
:101E400010BDC046000002408C0D0020C046C046B8
:101E500010B582B074460194FEF792FC1D4B1B68CE
:101E60001A0B0F2313400093009A0F2313400FD037
:101E7000184BF02212025A60174B9B69002B07D0B7
:101E8000154B9A69144BD969009B081C191C904783
:101E9000104B1B681A0C0F2313400093009A0F235A
:101EA00013400FD00B4BF02212035A600A4B1B6AEF
:101EB000002B07D0084B1A6A074B596A009B081C75
:101EC000191C9047FEF77CFC019B181CFEF750FA8A
:101ED00002B010BD000002408C0D0020C046C0467C
:101EE00000B583B00F4B00221A600023019310E06D
:101EF0000D49019A131C5B009B189B005B58002244
:101F00001A600A4B019AD2000021D150019B013383
:101F10000193019B042BEBDD054B012252425A60D9
:101F200003B000BD880D0020405100088C0D00203A
:101F300000000240C046C046C046C046C046C0463B
:101F400000B585B00390029101920093039B002B92
:101F500003D12E4B181CFEF7CBFC039B5B7A0122AE
:101F6000101C9840031C1A1C294B1B68134001D0FD
:101F7000012347E0039B5B7A1A1C264BD200019990
:101F8000D150039B5B7A234ADB00D3180433009AB9
:101F90001A60039B5B7A0122111C99400B1C1A1CCE
:101FA0001B4B1B681A431A4B1A60194B1A687F2384
:101FB000134005D0184B184A526901210A435A614F
:101FC000039B1B68039A126812680F218A431A60E8
:101FD000039B5B68039A127A0F21081C9040021C35
:101FE0001A60039B1B6800221A60019B002B08D01B
:101FF000039B9B7A1A1C029B9B01101C191CFEF769
:102000002FFA0023181C05B000BDC0461050000870
:10201000880D00208C0D002000100240C046C046F4
:1020200000B5164B154A1268802149000A431A6010
:10203000134B1A6AC0239B001A4080239B009A42CC
:1020400006D00F4B802252021A620D4B00221A62F8
:102050000B4B1A6A80231B0213400DD1084B084A10
:10206000126A802189000A431A62054B044A126AE7
:10207000802109020A431A6200BDC0460070004078
:1020800000100240C046C046C046C046C046C046DA
:1020900008B5134B1B69124B012252421A61104BB7
:1020A00000221A610E4B0E4AD2680E490A43DA60CA
:1020B0000B4B0022DA600C4B0C4A5A600A4B002290
:1020C0009A60094B07221A60054B054AD2698021A4
:1020D00049050A43DA61FFF7A3FFFFF701FF08BDD7
:1020E00000100240FFFFBFFF10E000E08F6500001E
:1020F00000B5324B314A126801210A431A60C046CA
:102100002E4B1A6802231340FAD02C4B2B4A11682D
:10211000F9220A401A60294B00225A60C046274B18
:102120005A680C231340FAD1244B244A12688021A8
:1021300049020A431A60C046204B1A6880239B025A
:102140001340F9D01D4B1D4A526A01210A435A62BD
:10215000C0461A4B5A6A02231340FAD0174BA022EA
:1021600052025A60154B0122DA62144B00221A63A4
:10217000124B124A1268802149040A431A60C04671
:102180000E4B1A6880239B041340F9D00C4B11228C
:102190001A600A4B094A526802210A435A60C04633
:1021A000064B5A680C231340082BF9D1034B034A02
:1021B000926901210A439A6100BDC04600100240A5
:1021C00000200240C046C046C046C046C046C04689
:1021D00010B582B074460194FEF7D2FA124B5A69D8
:1021E000032313400093104B009A5A61009A012375
:1021F000134006D00D4B5B685B680C4A101C002135
:102200009847009A0223134006D0084B5B68DB68AE
:10221000064A101C01219847FEF7D2FA019B181CB0
:10222000FEF7A6F802B010BD00040140B40D002076
:1022300010B582B074460194FEF7A2FA124B5A69A7
:102240000C2313400093104B009A5A61009A042308
:10225000134006D00D4B5B685B690C4A101C0221D1
:102260009847009A0823134006D0084B5B68DB6947
:10227000064A101C03219847FEF7A2FA019B181C7E
:10228000FEF776F802B010BD00040140B40D002046
:1022900010B582B074460194FEF772FA4D4B5A693C
:1022A0004D4B134000934B4B009A5A61009A1023F8
:1022B000134006D0494B5B685B6A484A101C0421F6
:1022C0009847009A2023134006D0444B5B68DB6A92
:1022D000424A101C05219847009A4023134006D01B
:1022E0003E4B5B685B6B3D4A101C06219847009A89
:1022F0008023134006D0394B5B68DB6B374A101CD8
:1023000007219847009A80235B00134006D0334B87
:102310005B685B6C314A101C08219847009A802347
:102320009B00134006D02D4B5B68DB6C2B4A101CC6
:1023300009219847009A8023DB00134006D0274BE1
:102340005B685B6D254A101C0A219847009A802320
:102350001B01134006D0214B5B68DB6D1F4A101C2C
:102360000B219847009A80235B01134006D01B4B3A
:102370005B685B6E194A101C0C219847009A8023F9
:102380009B01134006D0154B5B68DB6E134A101C93
:102390000D219847009A8023DB01134006D00F4B94
:1023A0005B685B6F0D4A101C0E219847009A8023D2
:1023B0001B02134006D0094B5B68DB6F074A101CF9
:1023C0000F219847FEF7FCF9019B181CFDF7D0FF81
:1023D00002B010BD00040140F0FF0000B40D002069
:1023E00010B582B074460194FEF7CAF9094B8022F9
:1023F00052025A61084B5A688423D358064A101C6B
:1024000010219847FEF7DCF9019B181CFDF7B0FF7F
:1024100002B010BD00040140B40D0020C046C0460B
:1024200010B582B074460194FEF7AAF9094B8022D8
:1024300092025A61084B5A688C23D358064A101CE2
:1024400011219847FEF7BCF9019B181CFDF790FF7E
:1024500002B010BD00040140B40D0020C046C046CB
:1024600008B50520C021FDF7FBFF0620C021FDF7C0
:10247000F7FF0720C021FDF7F3FF0120C021FDF782
:10248000EFFF0220C021FDF7EBFF08BDC046C046AC
:1024900008B5024B181CFFF7E3F908BDB40D002086
:1024A00000B585B00190019B1B78012B01D1FFF78E
:1024B000D7FF0023039317E0019B5B68039AD200C8
:1024C000D2580423134006D0019A039B101C191CF8
:1024D00000F016F805E0019A039B101C191C00F08F
:1024E000B7F8039B01330393039B1B2BE4D905B07F
:1024F00000BDC046C046C046C046C046C046C046F5
:1025000010B586B001900091019B5B68009AD200E3
:10251000D258012313400AD04B4B4B4A9168009A82
:102520000120041C9440221C0A439A600AE0464B96
:10253000454A926800990120041C8C40211CC94323
:102540000A409A60019B5B68009AD200D25802232D
:1025500013400AD03C4B3C4AD168009A0120041C2D
:102560009440221C0A43DA600AE0374B364AD268AC
:1025700000990120041C8C40211CC9430A40DA60E8
:10258000019B5A68009BDB00D31804331B68002BA7
:1025900015D02D4B2C4A1168009A0120041C944040
:1025A000221C0A431A60284B274A526800990120CE
:1025B000041C8C40211CC9430A405A6014E0224B81
:1025C000214A5168009A0120041C9440221C0A43AD
:1025D0005A601D4B1C4A126800990120041C8C4053
:1025E000211CC9430A401A60009B0F2B2AD8009B6C
:1025F0009B080593009A032313409B000F22111C94
:1026000099400B1CDB430493019B5B68009AD2004A
:10261000D258F02313401A09009903230B409B0062
:10262000141C9C40231C0393084B084A0599023153
:1026300089008A5804991140039A1143059A02327D
:102640009200D15006B010BD0004014000000140CE
:1026500010B582B0019000911A4B1A4A1268009985
:102660000120041C8C40211CC9430A401A60154BF0
:10267000144A526800990120041C8C40211CC94353
:102680000A405A600F4B0F4A926800990120041CBF
:102690008C40211CC9430A409A600A4B094AD268FF
:1026A00000990120041C8C40211CC9430A40DA60B7
:1026B000044B009A0121081C9040021C5A6102B090
:1026C00010BDC04600040140C046C046C046C046DA
:1026D00082B001900091009B5A68019B5A60009B58
:1026E0009A68019B9A60009BDA68019BDA60009B04
:1026F0001A69019B5A61009B5A69019B1A62009BEF
:102700009A69019B5A62009B1A68019B1A6002B089
:102710007047C046C046C046C046C046C046C046D8
:1027200000B583B00190164B154A5269BC21C9030C
:102730000A435A61019B9022D205101C191CFFF715
:10274000C7FF019B1C330F4A101C191CFFF7C0FF69
:10275000019B38330C4A101C191CFFF7B9FF019B71
:1027600054330A4A101C191CFFF7B2FF019B703347
:10277000074A101C191CFFF7ABFF03B000BDC04691
:10278000001002400004004800080048000C004807
:1027900000140048C046C046C046C046C046C046B9
:1027A00000B58FB0039002910192019A0323134068
:1027B0000D93019A042313409B080C93019A18234C
:1027C0001340DB080B93019A602313405B090A93C3
:1027D000019AF023DB001340DB09089300230993DF
:1027E000029A0123134058D0099A072313409B00F3
:1027F000089A111C99400B1C0793099A0723134050
:102800009B000F22111C99400B1C0693099B072B60
:1028100009D8039B1B6A069AD2431A40079B1A43A6
:10282000039B1A6208E0039B5B6A069AD2431A4034
:10283000079B1A43039B5A62099B0122111C994072
:102840000B1C0593039B5B68059AD2431A400C9BB3
:102850001A43039B5A60099B5B000322111C994099
:102860000B1C0493039B9B68049AD2431A400B9B56
:102870001A43039B9A60039BDB68049AD2431A4075
:102880000A9B1A43039BDA60039B1B68049AD2439A
:102890001A400D9B1A43039B1A60029B5B0802932C
:1028A000029B002B0FD00C9B5B000C930B9B9B009F
:1028B0000B930A9B9B000A930D9B9B000D93099B16
:1028C000013309938CE7C0460FB000BDC046C04637
:1028D00010B582B01F4B204A1A607F2301931D4B15
:1028E0001B68CA225A621B4B1B6853225A621A4B3E
:1028F000DA68102313402BD1164B1B68154A126857
:10290000D26880210A43DA60124B1B68DA684023E0
:102910001340F9D0019B1C04019B01330F48191C83
:10292000FDF7CEFB031C013B5B045B0C23430193CF
:10293000084B1B68019A1A61064B1B68019A1A61C1
:10294000044B1B68034A1268D26880218A43DA600C
:1029500002B010BDBC0D002000280040409C0000CB
:1029600000B583B0019000911B4B1B681A4A126896
:10297000D26880210A43DA60174B1B68DA6840236B
:102980001340F9D0009B1B7A002B08D0124B1B6818
:10299000114A1268926840210A439A6007E00E4B80
:1029A0001B680D4A1268926840218A439A600A4B5C
:1029B0001B68009A52681A60074B1B68009A1268DD
:1029C0005A60054B1B68044A1268D26880218A430A
:1029D000DA6003B000BDC046BC0D0020C046C04652
:1029E00000B583B001900091084B1B68DA68202382
:1029F0001340F9D0054B1B681A68009B5A60034BC3
:102A00001B685A68009B1A6003B000BDBC0D002013
:102A100000B585B001900091009A0823134001D0C1
:102A2000FDF77EFC019B5B6A1B68019A526A126883
:102A300012680F218A431A60019B5B6A5B68019AE6
:102A4000526A127A0F21081C9040021C1A60019BE6
:102A50001B6A1B68019A126A126812680F218A4366
:102A60001A60019B1B6A5B68019A126A127A0F2135
:102A7000081C9040021C1A60019B5B681B68002BBD
:102A800010D0019B04221A70019B5B681B68019A9D
:102A9000101C9847019B1B78042B06D1019B022236
:102AA0001A7002E0019B02221A7072B6FDF738FE1E
:102AB000019B9B68002B0CD0019B9B680393019B9F
:102AC00000229A60039B00229A62039B181CFDF768
:102AD000FFFFFDF73DFE62B605B000BDC046C04633
:102AE00000B583B001900091009A0823134001D0F3
:102AF000FDF716FC03B000BDC046C046C046C04648
:102B000008B50C4B012252421A800B4B181CFFF7E0
:102B100087F8094B094ADA61074B094A1A62064BE2
:102B2000084A5A62044B084A9A62034B074ADA621F
:102B300008BDC046F00D0020C00D0020003001404F
:102B40004C510008585100080A10000018100000ED
:102B500010B584B00190019B1B78012B42D1019AE2
:102B6000494B9A4230D1019B196A6C460F34474A4F
:102B7000019B081C0221FFF7E3F9031C23706B463D
:102B80000F331B78002B03D0414B181CFDF7B0FE10
:102B9000019B596A6C460F343E4A019B081C022176
:102BA000FFF7CEF9031C23706B460F331B78002B05
:102BB00003D0394B181CFDF79BFE384B374A9269FE
:102BC000802149010A439A61019B1B6A1B68019A93
:102BD000D2690C329A60019B5B6A1B68019AD269C8
:102BE0000C329A60019B5B689B891A1CF0231B01C5
:102BF00013400293029B002B04D0029AE023DB00D7
:102C00009A420CD8019B9A6A254B1A40019B9A6202
:102C1000019BDA6A224B1A40019BDA6211E0019BA8
:102C20009A6A1F4B1340A022D2001A43019B9A625A
:102C3000019BDA6A1A4B1340A022D2001A43019B6F
:102C4000DA62019BDB6900221A80019BDA69019B31
:102C50005B685B89C12189000B439BB21380019B98
:102C6000DA69019B5B689B890E490B439BB2938099
:102C7000019BDA69019BDB691B889BB240210B43F6
:102C80009BB2138004B010BDC00D0020112A0008B3
:102C900060500008E12A000874500008001002404B
:102CA000FFF0FFFF07100000C046C046C046C04608
:102CB00082B00190019B5B685A68019B5B681B892D
:102CC0000121081C9840031C9BB2538302B070473B
:102CD00082B00190019B5B685A68019B5B681B890D
:102CE0000121081C9840031C9BB2138302B070475B
:102CF00084B0039002910192039B1B6A1B681A4ADD
:102D0000DA60039B1B6A1B68029A5A60039B1B6A6A
:102D10001B68039A926A1A60039B5B6A1B68019A9C
:102D2000DA60039B5B6A1B68029A5A60039B5B6ACA
:102D30001B68039AD26A80210A431A60039B1B6AAC
:102D40001B68039A126A1268126801210A431A600A
:102D5000039B5B6A1B68039A526A1268126801211E
:102D60000A431A6004B07047F20D0020C046C04606
:102D700000B585B001900091019AD423D3580393F4
:102D8000019AD823D258009B1B68101C191CFDF710
:102D900097F9031C9AB2039B9A81009B9B6840227F
:102DA0001A43039B5A60009BDB6801221A43039B72
:102DB0009A60009B5B68054A1A43039B1A60039B59
:102DC000012252421A6205B000BDC0462D0100002A
:102DD00000B585B00190009100230393009A082369
:102DE000134003D0039B802213430393009A0123D3
:102DF000134003D0039B202213430393009A022322
:102E0000134003D0039B402213430393009A0423EF
:102E1000134004D0039B802252001343039372B6E5
:102E2000FDF77EFC019B1A1D039B101C191CFEF76D
:102E30007FF9FDF78DFC62B605B000BDC046C04607
:102E400000B587B00190019AD423D3580593059B10
:102E50001B680493059BDB690393059B039A1A6225
:102E6000039A0F23134005D0019A039B101C191CD1
:102E7000FFF7AEFF039A80235B0013400DD072B6BC
:102E8000FDF74EFC019B1A1D80239B00101C191C92
:102E9000FEF74EF9FDF75CFC62B6039A202313405F
:102EA0000ED072B6FDF73CFC059B9B8C9BB2DBB24F
:102EB000019A101C191CFEF773FEFDF749FC62B65F
:102EC000049A8023134025D0039A8023134021D0F5
:102ED00072B6FDF725FC019B3033181CFEF778FB1A
:102EE000031C0293029B002B0DDA019B0433181C78
:102EF0000821FEF71DF9049BC022934340221A4388
:102F0000059B1A6003E0029B9AB2059B1A85FDF7A8
:102F10001FFC62B6039A4023134012D072B6FDF72D
:102F2000FFFB019B0433181C1021FEF701F9FDF78C
:102F30000FFC62B6049B4022191C91430A1C059B9E
:102F40001A6007B000BDC046C046C046C046C04675
:102F500082B00190034B034A126880210A431A6031
:102F600002B0704700380140C046C046C046C04667
:102F700010B582B074460194FDF702FC054B181C95
:102F8000FFF75EFFFDF71CFC019B181CFDF7F0F935
:102F900002B010BDF40D0020C046C046C046C04679
:102FA00008B5084A084B101C00211A1CFEF798FDB2
:102FB000044AD4230549D150024AD8230449D150A8
:102FC00008BDC046F40D0020512F00080038014014
:102FD00080BA8C01C046C046C046C046C046C04606
:102FE00000B583B001900091009B002B01D10E4BE6
:102FF0000093019B1B7A012B0ED1019A0B4B9A4235
:103000000AD10B4B0A4A92698021C9010A439A618D
:103010001B20C021FDF724FA019A009B101C191CEB
:10302000FFF7A6FE03B000BD80510008F40D00209C
:1030300000100240C046C046C046C046C046C0461A
:1030400008B5FFF755F808BDC046C046C046C046A3
:103050007047C046C046C046C046C046C046C0468F
:1030600000B589B00390029101920093029B0593F1
:10307000009B002B02D1029B049301E0009B049370
:10308000039B0B330693059B181C0199FDF75CF815
:103090000B1C0793079B30330793079B392B02DDEB
:1030A000079B07330793069B013B0693079BDAB206
:1030B000069B1A70059B181C0199FDF701F8031C6B
:1030C0000593049B181C0199FCF7FAFF031C049359
:1030D000049B002BD7D1039B0B331A1C069BD31ADE
:1030E0000793069B1A78039B1A70039B0133039383
:1030F000069B01330693079B013B0793079B002B1D
:10310000EFD1039B181C09B000BDC046C046C046A5
:1031100000B585B00390029101920399029A019B38
:10312000081C111C1A1C0023FFF79AFF031C181C13
:1031300005B000BDC046C046C046C046C046C046F9
:103140000EB400B58EB0019010AB05936B462F33D3
:103150000F9A12781A700F9B01330F936B462F331F
:103160001B78002B00D1D7E16B462F331B78252B22
:103170000BD0019B1B689B6801996A462F3212781D
:10318000081C111C9847C046E0E702AB0D9302AB48
:103190000C936B461E3300221A700F9B1B782D2B4D
:1031A00006D10F9B01330F936B461E3301221A7019
:1031B0006B462E3320221A700F9B1B782E2B03D0C8
:1031C0000F9B1B78302B06D10F9B01330F936B465F
:1031D0002E3330221A70002308936B462F330F9A38
:1031E00012781A700F9B01330F936B462F331B78A5
:1031F0002F2B0CD96B462F331B78392B07D86B46F6
:103200002F336A462F321278303A1A700BE06B4631
:103210002F331B782A2B12D1059B1A1D05921A6891
:103220006B462F331A70089A131C9B009B185B0087
:103230001A1C6B462F331B78D3180893CDE7C04672
:10324000002309936B462F331B782E2B33D16B460B
:103250002F330F9A12781A700F9B01330F936B461E
:103260002F331B782F2B0CD96B462F331B78392B20
:1032700007D86B462F336A462F321278303A1A70CD
:103280000BE06B462F331B782A2B13D1059B1A1D9D
:1032900005921A686B462F331A70099A131C9B000B
:1032A0009B185B0009936B462F331B78099AD31840
:1032B0000993CCE7C0466B462F331B786C2B04D0A8
:1032C0006B462F331B784C2B10D16B461F330122DA
:1032D0001A700F9B1B78002B1CD06B462F330F9A54
:1032E00012781A700F9B01330F9313E06B462F3344
:1032F0001B78402B06D96B462F331B785A2B01D8ED
:10330000012200E000226B461F331A701978012257
:103310000A401A706B462F331B78443B342B00D97C
:1033200088E09A007E4BD3181B689F466B462E336D
:1033300020221A70059B1A1D05921B68DAB20D9B9C
:103340001A700D9B01330D937EE06B462E332022C5
:103350001A70059B1A1D05921B680C930C9B002B81
:1033600001D1704B0C93099B002B01D16E4B09933B
:103370000C9B0D9302E00D9B01330D930D9B1B786D
:10338000002B60D0099B013B0993099B002BF2DACB
:1033900059E06B461F331B78002B05D0059B1A1D87
:1033A00005921B68069304E0059B1A1D05921B6895
:1033B0000693069B002B08DA0D9B2D221A700D9B9D
:1033C00001330D93069B5B4206930D9A069B101CDE
:1033D000191C0A22FFF79CFE031C0D9334E06B4678
:1033E0002F3310221A7008E06B462F330A221A700E
:1033F00003E06B462F3308221A706B461F331B788D
:10340000002B05D0059B1A1D05921B68069304E04E
:10341000059B1A1D05921B6806936B462F331B787C
:103420000D99069A081C111C1A1CFFF771FE031C4B
:103430000D9309E00D9B6A462F3212781A700D9B8E
:1034400001330D9300E0C0460D9A0C9BD31A0A93EA
:10345000089A0A9BD31A0893089B002B01DA0023D1
:1034600008936B461E331B7801225340DBB2002BBE
:1034700002D0089B5B420893089B002B34DA0C9B1C
:103480001B782D2B13D16B462E331B78302B0ED18E
:10349000019B1B689B680C9A12780C9901310C9166
:1034A0000199081C111C98470A9B013B0A93019B38
:1034B0001B689B6801996A462E321278081C111C01
:1034C0009847089B01330893089B002BEFD10BE032
:1034D000019B1B689B680C9A12780C9901310C9126
:1034E0000199081C111C98470A9B013B0A930A9BEF
:1034F000002BEDDA0CE0019B1B689B6801996A4682
:103500002E321278081C111C9847089B013B089327
:10351000089B002BEFD119E60EB008BC03B018478A
:103520002052000890500008FF7F0000C046C046AF
:1035300000B585B001900091009B5B680393009BF0
:103540001B680293019B00221A62019B00229A6170
:10355000019B0022DA60019B0022DA61019B0022BC
:103560001A61019B00225A61019B00221A60019B93
:1035700000225A60019B00229A60019B0122524264
:103580001A62029AE0231B0213405B0B1A1C019B78
:103590009A61019B9B69072B02D1019B00229A61D2
:1035A000029A0F231A40019BDA60019BDB68191C09
:1035B000029A302313401A09131C9B009B185B00CE
:1035C000CB181A1C019BDA60029AF0231B011340EE
:1035D0001B0A1A1C019B1A61019B1B69191C029A88
:1035E00080235B0113401A0B131C9B009B185B008C
:1035F000CB181A1C019B1A61019B1B695A1E019B67
:103600001A61029AF0231B0313401B0C1A1C019B26
:103610005A61019B5B69191C029AF0231B04134039
:103620001A0D131C9B009B185B00CB181A1C019BE6
:103630005A61019B5B691A1C6432019B5A61039AAF
:103640000F231A40019B1A60019B1B68191C039AE7
:10365000702313401A09131C9B009B185B00CB18A6
:103660001A1C019B1A60039AF0231B0113401B0ACA
:103670001A1C019B5A60019B5B68191C039AE0238A
:10368000DB0113401A0B131C9B009B185B00CB182B
:103690001A1C019B5A60039AF0231B0313401B0C56
:1036A0001A1C019B9A60019B9B68191C039AC023FA
:1036B0009B0313401A0D131C9B009B185B00CB1837
:1036C0001A1C019B9A60019B9B68191C039A80231A
:1036D000DB0313409A0D131C5B009B189B00CB1857
:1036E0001A1C019B9A6005B000BDC046C046C0468A
:1036F00010B584B00190009100230393009B002239
:103700001A60009B00225A60019B5B69643B039333
:10371000009B1C68039B181C0A21FCF7D1FC031CAE
:103720001A05F0231B041340221C1A43009B1A6045
:10373000009B1C68039B181C0A21FCF705FD0B1C51
:103740001B04221C1A43009B1A60019B9B69002BDF
:1037500002D10723039302E0019B9B690393009B23
:103760001A68039B5B031B041B0C1A43009B1A6023
:10377000019B1B6901330393009B1C68039B181C6E
:103780000A21FCF79DFC031C1A0380235B011340F4
:10379000221C1A43009B1A60009B1C68039B181C88
:1037A0000A21FCF7D1FC0B1C1B02221C1A43009BB4
:1037B0001A60019BDB680393009B1C68039B181C29
:1037C0000A21FCF77DFC031C1A0130231340221C44
:1037D0001A43009B1A60009B1C68039B181C0A215B
:1037E000FCF7B2FC0B1C221C1A43009B1A60019BC5
:1037F0009B680393009B5C68039B181C0A21FCF7E1
:103800005FFC031C1A05C0239B031340221C1A43B0
:10381000009B5A60009B5C68039B181C0A21FCF704
:1038200093FC0B1C1B04221C1A43009B5A60019B37
:103830005B680393009B5C68039B181C0A21FCF7E0
:103840003FFC031C1A03E023DB011340221C1A4334
:10385000009B5A60009B5C68039B181C0A21FCF7C4
:1038600073FC0B1C1B02221C1A43009B5A60019B19
:103870001B680393009B5C68039B181C0A21FCF7E0
:103880001FFC031C1A0170231340221C1A43009BC7
:103890005A60009B5C68039B181C0A21FCF754FCCF
:1038A0000B1C221C1A43009B5A6004B010BDC0467A
:1038B00000B587B00190009103AB00221A6003AB02
:1038C00000225A6003AB00221A72019A03AB101C4B
:1038D000191CFEF72DF8009A03AB101C191CFFF7FA
:1038E00027FE07B000BDC046C046C046C046C04621
:1038F00000B587B00190009103AB00221A6003ABC2
:1039000000225A6003AB00221A72009A03AB101C0B
:10391000191CFFF7EDFE019A03AB101C191CFDF7F3
:10392000E7FF07B000BDC046C046C046C046C0461F
:1039300082B001909023DB0510221A8302B07047F9
:1039400000B583B0019000919023DB051A69012333
:1039500013405A1E9341DAB2114B1A70104B1B7868
:10396000002B04D09023DB0510225A8316E072B698
:10397000FCF7D6FE0B4BDB68002B03D0094B181C61
:10398000FDF72EF80749084A084B081C111C1A1CA1
:103990000023FCF7D5FFFCF7DBFE62B603B000BDE9
:1039A000E00E0020E40E00208813000031390008EA
:1039B00082B00190009102B07047C046C046C04638
:1039C00000B583B00190019B181CFFF781F903B08B
:1039D00000BDC046C046C046C046C046C046C04600
:1039E00030B58FB00390B34B9B69B34A9A6153E1F2
:1039F00000230D9372B6FCF763FEAE4B9A69AF4B92
:103A00001A60FA235B000220191CFDF711F9031C50
:103A10000D93AA4B00221A60FCF76AFE62B6A84B0F
:103A20001B78002B00D193E00D9B013300D18FE078
:103A3000A44B1B78181C0A21FCF742FB031CDBB2C9
:103A4000A14AD25CA14B1A709E4B1B78181C0A210C
:103A5000FCF77AFB0B1CDBB29B4AD35C01221343BD
:103A6000DAB29A4B5A70974B5B78181C0A21FCF714
:103A700027FB031CDBB2944AD25C944B9A70914BA7
:103A80005B78181C0A21FCF75FFB0B1CDBB28E4A2B
:103A9000D35C01221343DAB28C4BDA70894B9B78EA
:103AA000181C0A21FCF70CFB031CDBB2864AD25C13
:103AB000864B1A71834B9B78181C0A21FCF744FB38
:103AC0000B1CDBB2804AD35C01221343DAB27F4B7A
:103AD0005A717C4BDB78181C0A21FCF7F1FA031CA5
:103AE000DBB2794AD25C794B9A71764BDB78181C41
:103AF0000A21FCF729FB0B1CDBB2734AD25C734B27
:103B0000DA71704BDB78002B06D1704BDB79012228
:103B10001343DAB26D4BDA716D4A04AB101C191CF9
:103B2000FFF7C6FE674B1B781A1C04AB9A60654B07
:103B30005B781A1C04AB5A60624B9B781A1C04AB6E
:103B40001A60634A04AB101C191CFFF7D1FE56E043
:103B50005F4A04AB101C191CFFF7AAFE04AB9B685C
:103B6000181C0A21FCF7FCFA031C574AD25C574B7D
:103B70001A7004AB9B68181C0A21FCF747FB0B1C4E
:103B8000514AD35C01221343DAB2504B5A7004AB52
:103B90005B68181C0A21FCF7E3FA031C4A4AD25C52
:103BA0004A4B9A7004AB5B68181C0A21FCF72EFB89
:103BB0000B1C454AD35C01221343DAB2434BDA7043
:103BC00004AB1B68181C0A21FCF7CAFA031C3E4A06
:103BD000D25C3E4B1A7104AB1B68181C0A21FCF71F
:103BE00015FB0B1C384AD35C01221343DAB2374B66
:103BF0005A71364B10229A71344B1022DA71354BC0
:103C0000181CFEF755F8334A304B101C08211A1CBB
:103C1000FEF776F82B4BDA7801231340DBB2002B4A
:103C20003AD1284B1B781A1C264B5B78254989789A
:103C30000D1C2449C9780C1C27482849009501947B
:103C4000FFF77EFA264B1B881A1C264B1B6822485E
:103C50002549FFF775FA254B1B881A1C244B1B6856
:103C60001D482149FFF76CFA224B1B881A1C224B76
:103C70001B6819481C49FFF763FA204B1B881A1C64
:103C80001F4B1B6814481849FFF75AFA124A1D4B7C
:103C9000101C191CFFF754FA064B9A692123D35CB8
:103CA0001A1C0423134000D1A2E60023181C0FB0F5
:103CB00030BDC046400D0020A0500008A8170020CD
:103CC000D80E0020DC0E002000080020D00E0020BE
:103CD000BC0D0020C00D0020F40D0020A8500008ED
:103CE000F8180020FC180020BC5000080019002023
:103CF00004190020081900200C19002010190020B8
:103D000014190020D0500008C046C046C046C04626
:103D100000B583B00190124B114A526980214A408C
:103D20005A61104A019B111C1A1C0423081C111C07
:103D30001A1C00F0E5FC0C4B01221A700B4B1B689F
:103D4000002B0BD0094B1B6801229A62074B1B68A2
:103D5000181CFCF7BDFE054B00221A6003B000BD25
:103D600000040048DC0E0020D80E0020A817002018
:103D700000B583B001900E4B9B690E4A9A610BE02F
:103D80000D4B40225A830A20FDF752F90A4B40227C
:103D90001A830A20FDF74CF9054B9A692123D35C5D
:103DA0001A1C04231340EBD00023181C03B000BDE1
:103DB000400D0020D450000800040048C046C04612
:103DC00000B583B0FDF72CFDFCF7C2FB324B181C8D
:103DD0000021FDF7B5FE314B00221A70304B402216
:103DE0005A832F4B80225A8300F07AF89023DB0508
:103DF000181C10211922FEF7D3FC002000213F22BD
:103E000000F0A6F99023DB0510225A83254A264BA1
:103E1000101C191CFDF71CFF244998235A00244B41
:103E200000200090081C111C4022FDF7C9F8214910
:103E30008B231A01204B00200090081C111C4022EB
:103E4000FDF7BEF800F02CFC1C4A1D4B101C191C81
:103E5000FDF716FD10481B491B4A1C4BFFF770F974
:103E600072B6FCF72DFC1A4BDB68002B03D0184B05
:103E7000181CFCF7B5FD1649164A174B081C111CF7
:103E80001A1C0023FCF75CFDFCF732FC62B6FA203A
:103E9000FDF7CEF8FBE7C046F40D0020D80E002059
:103EA00000040048C00D0020E0530008B0170020B7
:103EB000713D0008F80E0020E1390008B40D002023
:103EC00000530008DC500008EC50000880BA8C0158
:103ED000E40E00201027000031390008C046C0461B
:103EE00008B59023DB05181C20211A22FEF758FC88
:103EF0009023DB05181C40211A22FEF751FC902369
:103F0000DB05181C80211A22FEF74AFC9023DB05F2
:103F100008221A839023DB05181C08211922FEF7BA
:103F20003FFC08BDC046C046C046C046C046C0466D
:103F300008B59023DB05181C20211922FEF730FC60
:103F40009023DB05181C40211922FEF729FC902341
:103F5000DB05181C80211922FEF722FC9023DB05CB
:103F600008221A839023DB05181C08211922FEF76A
:103F700017FC08BDC046C046C046C046C046C04645
:103F800000B583B0FFF7D4FF0023019367E09023CF
:103F9000DB0520225A839023DB0540225A8390239D
:103FA000DB0580225A839023DB0508225A83902365
:103FB000DB0510229A619023DB0520221A839023CF
:103FC000DB0520225A839023DB05802252039A616D
:103FD0009023DB0520221A839023DB0520225A83BD
:103FE0009023DB0510229A619023DB0520221A839F
:103FF0009023DB0520225A839023DB0508221A83B5
:104000009023DB0520221A839023DB0520225A838C
:104010009023DB0508225A839023DB0520221A8394
:104020009023DB0520225A839023DB0520221A836C
:104030009023DB0520225A839023DB0520221A835C
:104040009023DB0520225A839023DB0520221A834C
:104050009023DB0520225A83019B01330193019BAE
:10406000072B94DD03B000BDC046C046C046C04625
:1040700000B583B0002301935FE09023DB0520228D
:104080005A839023DB0540225A839023DB0580224C
:104090005A839023DB0508225A839023DB051022E4
:1040A0009A619023DB0520221A839023DB052022CE
:1040B0005A839023DB05802252039A619023DB050B
:1040C00020221A839023DB0520225A839023DB05CC
:1040D00010229A619023DB0520221A839023DB05AE
:1040E00020225A839023DB0520221A839023DB05AC
:1040F00020225A839023DB0520221A839023DB059C
:1041000020225A839023DB0520221A839023DB058B
:1041100020225A839023DB0520221A839023DB057B
:1041200020225A839023DB0520221A839023DB056B
:1041300020225A83019B01330193019B072B9CDDB5
:10414000FFF7CEFE03B000BDC046C046C046C04625
:1041500000B585B06B46073318706B46063319708F
:104160006B4605331A7072B6FCF7AAFAFFF708FF20
:10417000002303933CE16B460B336A460532127809
:104180001A709023DB0520225A839023DB054022FE
:104190005A839023DB0580225A839023DB05082273
:1041A0005A839023DB0510229A619023DB056A462F
:1041B0000B32117801220A4002D18022120400E061
:1041C000002269460B310978C801FF2101400A43EA
:1041D0009A616B460B336A460B32127852081A709A
:1041E0009023DB0520221A839023DB0520225A83AB
:1041F0009023DB056A460B32117801220A4002D176
:104200008022120400E0002269460B310978C801BF
:10421000FF2101400A439A616B460B336A460B3219
:10422000127852081A709023DB0520221A839023FB
:10423000DB0520225A839023DB056A460B32117876
:1042400001220A4002D18022120400E000226946C5
:104250000B310978C801FF2101400A439A616B467E
:104260000B336A460B32127852081A709023DB0522
:1042700020221A839023DB0520225A839023DB051A
:104280006A460B32117801220A4002D180221204C0
:1042900000E0002269460B310978C801FF21014086
:1042A0000A439A616B460B336A460B321278520806
:1042B0001A709023DB0520221A839023DB0520222D
:1042C0005A839023DB056A460B32117801220A409B
:1042D00002D18022120400E0002269460B310978E5
:1042E000C801FF2101400A439A616B460B336A46BD
:1042F0000B32127852081A709023DB0520221A83A1
:104300009023DB0520225A839023DB056A460B327B
:10431000117801220A4002D18022120400E000221A
:1043200069460B310978C801FF2101400A439A61AF
:104330006B460B336A460B32127852081A70902380
:10434000DB0520221A839023DB0520225A83902349
:10435000DB056A460632117801220A4002D180222A
:10436000120400E00022694606310978C801FF21E5
:1043700001400A439A616B460B336A460B3212784E
:1043800052081A709023DB0520221A839023DB0544
:1043900020225A839023DB056A46073211780122D6
:1043A0000A4002D18022120400E00022694607314F
:1043B0000978C801FF2101400A439A616B460B331B
:1043C0006A460B32127852001A709023DB050822DD
:1043D0001A839023DB0520221A839023DB052022F9
:1043E0005A839023DB0508225A83039B01330393EE
:1043F000039B072B00DCBEE6FFF73AFEFCF778F9DB
:1044000062B605B000BDC046C046C046C046C04604
:1044100082B001900091009B9B791B071B0FDBB2C0
:104420001A1C009BDB799B079B0FDBB2191C8900D0
:10443000CB185B00DBB2D318DAB2019B1A70009B79
:104440001B791B071B0FDBB21A1C009B5B795B07F8
:104450005B0FDBB2191C8900CB185B00DBB2D318F1
:10446000DAB2019B5A70009B9B781B071B0FDBB2D3
:104470001A1C009BDB785B075B0FDBB2191C890001
:10448000CB185B00DBB2D318DAB2019B9A70009BA9
:104490001B781B071B0FDBB21A1C009B5B789B076A
:1044A0009B0FDBB2191C8900CB185B00DBB2D31861
:1044B000DAB2019BDA7002B07047C046C046C0460F
:1044C00000B585B0021C6B4607331A70334B02935C
:1044D0006B460F3300221A702DE06B460F331B78AA
:1044E000029AD3186A460F32127802998A18127803
:1044F0005208D2B21A706B460F331B78029AD31847
:104500006A460F32127802998A181278D1B26A4636
:104510000F3212780132029882181278D201D2B288
:104520000A43D2B2D2B21A706B460F336A460F32C8
:10453000127801321A706B460F331B78082BCCD9D6
:10454000029B0933029A093212785208D2B21A70C9
:10455000029B0933029A09321278D1B26A460732B5
:104560001278D201D2B20A43D2B2D2B21A700B4B35
:104570001A890B4B9A420FD172B6FCF7D1F8094A4F
:10458000064B101C191CFFF743FF064B181CFFF7C6
:10459000BFFBFCF7DDF862B605B000BDE8180020EF
:1045A000FCBF0000F4180020C046C046C046C0460C
:1045B00000B583B0019000912C4B1B685B6A9AB2E6
:1045C0002B4B1A802A4B1B88181C1A21FBF778FDED
:1045D000031C9BB21A1C274B1A60244B1B68002239
:1045E0005A62244B1A68244B9A4214D8214B1A68F9
:1045F000A5235B009A420ED91D4B1A881F4B1A80C7
:104600001C4B1A681E4B1A600020FFF759FF1D4B08
:1046100000221A7027E0174B1A681B4B9A421AD8CF
:10462000144B1B68822B16D9114B1A88174B1A8012
:10463000104B1A68164B1A60124B1B78002B06D0D1
:104640000120FFF73DFF0F4B00221A700BE00D4BCE
:1046500001221A7007E0064B1A880E4B1A80054B90
:104660001A680D4B1A6003B000BDC046E018002068
:10467000F8180020FC180020430200000819002050
:104680000C190020E4180020170100000019002078
:10469000041900201019002014190020C046C0463B
:1046A00008B5124B181C00210A2200F0D1F8104B5B
:1046B0000F4AD26902210A43DA610D4B0C4A126992
:1046C00002210A431A610A4B00221A61094B0A4A65
:1046D0001A60084B1A68074B1B681B889BB20121A4
:1046E0000B439BB213800023181C08BDE818002060
:1046F00000100240E018002000040040C046C04600
:10470000F0B54F464646C0B40F2A72D90B1C03437E
:104710009C0700D090E0171C103F3C090134270192
:104720000C683B1C0460103BDE064B68CD194360EF
:104730008C68F60F8460CB68041CC3600B1C1033BC
:1047400010349D4227D0002E0BD0196821605E687E
:1047500066609968A160DE681033E66010349D429F
:1047600019D0196821605E6866609968A160DE688A
:10477000191CE6601B69261C23614C6974618B69F6
:10478000B361CC691031F4610B1C1036341C10334A
:1047900010349D42E5D13F180F21B846114003293E
:1047A0004DD904398E08B3000433EC18A446043BF9
:1047B0002C1C5F0708CC4146B14608C1FE0F64457A
:1047C0000FD0002E03D080CC80C1644509D0271CB7
:1047D00008CF0E1C08C664684C603C1D311D644542
:1047E000F5D1494601318E000327AD193A404644C0
:1047F00001E00D1C061C002A1AD02F78B218F343D2
:10480000D1180124377001360C40013596420FD083
:10481000002C05D02B78013533700136964207D035
:10482000297831706C780235747002369642F7D16F
:104830000CBC90469946F0BD061C0D1CDDE73E1CE5
:104840000A1CD8E700000000000000000000000083
:10485000F0B5830700D181E0541E002A7DD0CDB28F
:10486000031C0326E70711D5431C0570334211D002
:104870001D700133941E33420CD0621E002C6CD08C
:104880001D700133141C334204D0013C1D700133F0
:104890003342F2D1032C49D9FF220A4017023A438E
:1048A00015042A430F2C5CD9261C103E370901370A
:1048B0003D015E19103DEF061A605A609A60DA6099
:1048C0001033FD0F9E4213D0002D06D01A605A609F
:1048D0009A60DA6010339E420AD01A605A609A6079
:1048E000DA601A615A619A61DA6120339E42F4D12A
:1048F0000F231C40351C331C032C17D9261FB70867
:104900000137BE00AB19043E770704C5FE0F9D4278
:104910000AD0002E02D004C59D4205D02F1C04C72A
:104920006A603D1D9D42F9D103221440002C14D031
:104930001C19DD43C9B266190127197001333E40C5
:10494000A3420AD0002E03D019700133A34204D031
:10495000197059700233A342FAD1F0BD031C141C24
:1049600098E71D1CCAE7C0460000000000000000D8
:1049700069646C6500000000000000000000000099
:10498000535623310000000053562332000000002C
:104990005356233300000000535623340000000018
:1049A0005356233500000000535623360000000004
:1049B00053562337000000005356233800000000F0
:1049C00053562339000000005356233130000000B5
:1049D00053562331310000000000000000000000A9
:1049E0002263685654536574492228290000000048
:1049F0002263685654526573657449222829000061
:104A00006368565452657365744928292C202331F4
:104A10000000000000000000000000000000000096
:104A2000636853636852656164794928292C20239F
:104A300031000000737461636B206F766572666C81
:104A40006F77000000000000000000000000000080
:104A50002263685468644372656174654922282939
:104A600000000000226368546864536574507269E2
:104A70006F72697479222829000000006368546805
:104A800064526573756D6528292C20233100000060
:104A9000226368546864536C65657022282900009D
:104AA0006368546864457869745328292C2023313D
:104AB000000000002263685468645761697422280A
:104AC0002900000063685468645761697428292CC0
:104AD0002023310063685468645761697428292C65
:104AE0002023320000000000000000000000000051
:104AF0002263684D7478496E697422282900000089
:104B00002263684D74784C6F636B53222829000030
:104B100063684D74784C6F636B5328292C202331C4
:104B20000000000063684D74784C6F636B53282954
:104B30002C202332000000002263684D74785472E8
:104B4000794C6F636B5322282900000063684D7411
:104B500078556E6C6F636B28292C20233100000080
:104B600063684D7478556E6C6F636B28292C202315
:104B70003200000063684D7478556E6C6F636B5340
:104B800028292C202331000063684D7478556E6C01
:104B90006F636B5328292C20233200000000000093
:104BA00022636845767452656769737465724D61F6
:104BB000736B222829000000226368457674556EC5
:104BC00072656769737465722228290022636845DB
:104BD000767442726F6164636173744D61736B4983
:104BE000222829002263684576745369676E616CD8
:104BF000222829002263684576745369676E616CC8
:104C0000492228290000000022636845767444691F
:104C10007370617463682228290000006368457618
:104C200074446973706174636828292C20233100EF
:104C300022636849515265616454696D656F75748A
:104C4000222829002263684F51577269746554699C
:104C50006D656F75742228290000000000000000B7
:104C60002265787453746172742228290000000050
:104C7000657874537461727428292C2023310000E4
:104C80002265787453746F702228290065787453F4
:104C9000746F7028292C202331000000226578745D
:104CA0004368616E6E656C456E61626C6522282991
:104CB000000000006578744368616E6E656C456E37
:104CC00061626C6528292C202331000022657874EC
:104CD0004368616E6E656C44697361626C6522281D
:104CE000290000006578744368616E6E656C4469E4
:104CF0007361626C6528292C202331002265787449
:104D00005365744368616E6E656C4D6F64654922CE
:104D1000282900006578745365744368616E6E6578
:104D20006C4D6F64654928292C2023310000000058
:104D30002272746353657454696D652228290000DA
:104D40002272746347657454696D652228290000D6
:104D500022727463536574416C61726D222829005C
:104D600022727463476574416C61726D2228290058
:104D7000227364537461727422282900736453741B
:104D800061727428292C202331000000227364539F
:104D9000746F702228290000736453746F7028297F
:104DA0002C20233100000000227364496E636F6D74
:104DB000696E674461746149222829002273645234
:104DC0006571756573744461746149222829000016
:104DD00022737069537461727422282900000000E4
:104DE000737069537461727428292C202331000078
:104DF0002273706953746F7022282900737069538D
:104E0000746F7028292C20233100000022737069F0
:104E100053656C6563742228290000007370695320
:104E2000656C65637428292C202331002273706916
:104E3000556E73656C65637422282900737069551B
:104E40006E73656C65637428292C20233100000083
:104E500022737069537461727449676E6F72652250
:104E600028290000737069537461727449676E6F0A
:104E7000726528292C2023310000000022737069FC
:104E8000537461727445786368616E67652228297E
:104E90000000000073706953746172744578636830
:104EA000616E676528292C20233100002273706908
:104EB000537461727453656E6422282900000000E7
:104EC000737069537461727453656E6428292C2061
:104ED00023310000227370695374617274526563E8
:104EE000656976652228290073706953746172744C
:104EF0005265636569766528292C202331000000FE
:104F00002273706949676E6F7265576169742228F0
:104F10002900000073706949676E6F726528292C3B
:104F20002023310073706949676E6F726528292CE0
:104F3000202332005F7370695F7761697428292CC0
:104F4000202331002273706945786368616E67655C
:104F50002228290073706945786368616E67652847
:104F6000292C202331000000737069457863686143
:104F70006E676528292C2023320000002273706997
:104F800053656E642228290073706953656E642826
:104F9000292C20233100000073706953656E64284A
:104FA000292C20233200000022737069526563654A
:104FB0006976652228290000737069526563656906
:104FC000766528292C202331000000007370695277
:104FD00065636569766528292C202332000000006E
:104FE0002273706941637175697265427573222815
:104FF000290000002273706952656C656173654217
:105000007573222829000000000000000000000045
:1050100022646D6153747265616D416C6C6F636184
:10502000746522282900000022646D615374726542
:10503000616D52656C65617365222829000000006E
:10504000646D6153747265616D52656C6561736501
:1050500028292C202331000000000000000000005F
:105060007370695F6C6C645F737461727428292C4F
:10507000202331007370695F6C6C645F73746172BC
:105080007428292C202332000000000000000000BA
:10509000286E756C6C290000000000000000000004
:1050A000646973706C617900252E32643A252E3262
:1050B000643A252E32642E252E326400202F2F20B4
:1050C000743A202537642C20643A2025346400008B
:1050D0000A000000626C696E6B65720025730A0D30
:1050E0000A0D25640A0D0A0D000000006E616E694C
:1050F000426F78202F2074696D65426F7800000040
:105100006D61696E0016C01104044C080C1014186F
:105110001C202122232400000000000000000000C9
:1051200071190008A1190008D1190008011A000816
:10513000211A0008511A0008711A0008A11A000863
:105140000800024004000240000009001C00024068
:105150000400024004010A00300002400400024042
:1051600008020A0044000240040002400C030B0045
:10517000580002400400024010040B000000000030
:105180000084030000000000004000000000000058
:105190004001282800000000CCFF3CFC5655556516
:1051A000FFFF0000000000001001000000500000A0
:1051B0000000000000F0000055055555FFFF0000FD
:1051C00000000000000000000000000000000000DF
:1051D000000000F055555505FFFF000000000000DD
:1051E00000000000000000000000000000000000BF
:1051F00055555555FFFF000000000000000000005D
:10520000000000000000000000000000505555554F
:10521000FFFF000000000000000000000000000090
:105220009233000834340008343400083434000861
:105230003434000892330008343400083434000851
:10524000343400083434000834340008F2330008E1
:10525000343400083434000834340008343400088E
:1052600034340008E83300083434000834340008CB
:10527000DE330008343400083434000834340008C5
:10528000343400083434000834340008343400085E
:105290003434000834340008343400082C33000857
:1052A00092330008343400083434000834340008E1
:1052B00034340008923300083434000834340008D1
:1052C000343400083434000834340008F233000861
:1052D0003434000834340008343400084A330008F9
:1052E00034340008E833000834340008343400084B
:1052F000DE33000800000000000000000000000095
:10530000070000004139000807000000B14500080F
:10531000000000000000000000000000000000008D
:1053200006000000B1390008000000000000000085
:10533000000000000000000000000000000000006D
:10534000000000000000000000000000000000005D
:10535000000000000000000000000000000000004D
:10536000000000000000000000000000000000003D
:10537000000000000000000000000000000000002D
:10538000000000000000000000000000000000001D
:10539000000000000000000000000000000000000D
:1053A00000000000000000000000000000000000FD
:1053B00000000000000000000000000000000000ED
:1053C00000000000000000000000000000000000DD
:1053D00000000000000000000000000000000000CD
:1053E000C139000800000048030030000007000039
:0C53F000EE82DCD6B2767EC2FEF6000033
:04000005080002519C
:00000001FF
